:020000040000FA
:0600000050EF02F01200B7
:020006001200E6
:060008000EEF00F01200F3
:02000E000100EF
:0C001000BC04000000010000970000008C
:04001C00DACFE4FF54
:10002000E2CFDAFFE9CFE4FFEACFE4FFF6CFE4FF67
:10003000F7CFE4FFF5CFE4FFF3CFE4FFF4CFE4FF25
:10004000FACFE4FF00EE00F0020EE80403E3EECF87
:10005000E4FFFBD700EE02F0020EE80403E3EECF6C
:10006000E4FFFBD7E6529EA63BD09E960101960583
:1000700017E1080E085D0AE20851082BEA6A000F32
:10008000E96E010EEA22EF50C96E09D08B8C966B97
:100090000101A16B8B9C0101086BBF0EC96E20D0C2
:1000A0000101A15104E1C96A010EA16F19D0A16B30
:1000B00001010851082BEA6A000FE96E010EEA22DD
:1000C000C9CFEFFF080E085D02E29E8609D001014C
:1000D000A16B8B8C49D98B9CBF0EC96E0101086B3B
:1000E000E55200EE03F0020EE80403E3E5CFEDFF76
:1000F000FBD700EE01F0020EE80403E3E5CFEDFFCD
:10010000FBD7E5CFFAFFE5CFF4FFE5CFF3FFE5CF6F
:10011000F5FFE5CFF7FFE5CFF6FFE5CFEAFFE5CF47
:10012000E9FFE5CFDAFF1100956A900E946EC00EDC
:10013000C76E200EC66E1BD9F28EF28C9D869E96DF
:100140008B9C3F0EC96EFFD71200D9CFE6FFE1CFDF
:10015000D9FFFE0EDB508C6E25D931D9E552E7CFA1
:10016000D9FF1200D9CFE6FFE1CFD9FF0A0EE12671
:10017000020EDF6ED950010FE96EDACFEAFF540E9E
:10018000EE6E490EEE6E4D0EEE6E450EEE6E200ECC
:10019000EE6E3A0EEE6E200EEE6EEE6A090EDB6A21
:1001A000800EE66ED2DFE552D950010F026EDACF33
:1001B00003F0090EDB500F010224E96E000E03204C
:1001C000EA6EEF5013E0D950010F026EDACF03F060
:1001D000090EDBCFF3FFDB2AF3500224E96E000E99
:1001E0000320EA6EEF508C6EE3D8DED7DFCF02F04B
:1001F000023425E2DFCFE9FFEA6AE9BEEA68000ED1
:10020000E926010EEA22EF50F00BE8380F0B300F11
:100210008C6ECED8DFCFE9FFEA6AE9BEEA68000E4D
:10022000E926010EEA22EF500F0B300F8C6EC0D87A
:10023000DF5003E03A0E8C6EBBD8DF06D7D70A0E2C
:10024000E15C02E2E16AE552E16EE552E7CFD9FFF7
:100250001200D9CFE6FFE1CFD9FF050EE12601015B
:100260000505DF6E010EDB6A020E03C1DBFF030E24
:1002700004C1DBFF040E06C1DBFFC00EE66E65DFC6
:10028000E552DF50070801E2DF6AC00EE66E5DDF6F
:10029000E552DF50140DF3CF02F0F4CF03F0090E56
:1002A0000226010E0322010EDB500F010224E96E2B
:1002B000000E0320EA6EEF5017E0DF50140DF3CF6D
:1002C00002F0F4CF03F0090E0226010E0322010E04
:1002D000DB500224E96E000E0320EA6EEF508C6EB4
:1002E00067D8010EDB2AD5D7020EDB50F00BE838B9
:1002F0000F0B300F8C6E5CD8020EDB500F0B300FE3
:100300008C6E56D82F0E8C6E53D8030EDB50F00B2C
:10031000E8380F0B300F8C6E4BD8030EDB500F0BF1
:10032000300F8C6E45D82F0E8C6E42D8320E8C6EEC
:100330003FD8300E8C6E3CD8040EDB50F00BE83802
:100340000F0B300F8C6E34D8040EDB500F0B300FB8
:100350008C6E2ED8050EE15C02E2E16AE552E16E98
:10036000E552E7CFD9FF1200FDDE29EF01F0380E8C
:100370008C6E18D809D8010E8C6E14D805D80C0EC6
:100380008C6E10D8C4EF01F0010ED56E0B0ED76E37
:10039000BC0ED66EEAEF01F0480ED56EFD0ED66E9D
:1003A000EAEF01F08B908B928B84F6DF8B94120036
:1003B0008B808B928B84F0DF8B94DFEF01F08B903E
:1003C0008B82958E8B94E8DF8B8483BEFBD78B94D6
:1003D000959E1200F294D58EF2A4FED7F294D59E8B
:0203E000120009
:0E03E2000E0EF66E000EF76E000EF86E0101A4
:1003F0000900F5509C6F0900F5509D6F03E19C6763
:1004000001D03DD00900F550976F0900F550986F65
:100410000900F550996F09000900F550E96E0900CF
:10042000F550EA6E090009000900F5509A6F0900BD
:10043000F5509B6F09000900F6CF9EF1F7CF9FF1B1
:10044000F8CFA0F197C1F6FF98C1F7FF99C1F8FF67
:1004500001019A5302E19B5307E00900F550EE6E4B
:100460009A07F8E29B07F9D79EC1F6FF9FC1F7FFF5
:10047000A0C1F8FF01019C07000E9D5BBFD71200D1
:10048000000EF36E00EE00F0060E01D81200EA60D6
:1004900002D0EE6AFCD7F350E9601200EE6AFCD796
:1004A00015EE00F025EE00F0F86A019CF1EC01F089
:0C04B00003EC00F094EC00F0FBD712000D
:0404BC005059232947
:1004C000020724000053554E2C00000000000000DD
:1004D0000000000000000000004D4F4E2C00000006
:1004E000000000000000000000000000005455451E
:1004F0002C000000000000000000000000000000D0
:10050000005745442C0000000000000000000000DF
:1005100000000000005448552C00000000000000BE
:100520000000000000000000004652492C000000BE
:1005300000000000000000000000000000534154D3
:100540002C0000000000000000000000000000007F
:03055000000001A7
:020000040030CA
:010003000EEE
:00000001FF
