:020000040000FA
:0600000031EF02F01200D6
:020006001200E6
:060008000EEF00F01200F3
:02000E000100EF
:0C0010007E0400000001000096000000CB
:04001C00DACFE4FF54
:10002000E2CFDAFFE9CFE4FFEACFE4FFF6CFE4FF67
:10003000F7CFE4FFF5CFE4FFF3CFE4FFF4CFE4FF25
:10004000FACFE4FF00EE00F0020EE80403E3EECF87
:10005000E4FFFBD700EE02F0020EE80403E3EECF6C
:10006000E4FFFBD7E6529EA63DD09E9601019E512D
:1000700011E101010851082BEA6A000FE96E010E37
:10008000EA22EF50C96E080E085D03E10101010E7E
:100090009E6F28D09E0526E19F510AE10101086B61
:1000A0008B8C8B9CBF0EC96E0101010E9F6F1AD005
:1000B0009F0504E1C96A020E9F6F14D0010E9F6F65
:1000C00001010851082BEA6A960FE96E010EEA2237
:1000D000C9CFEFFF080E085D04E18B8C01019F6B17
:1000E00039D89E86E55200EE03F0020EE80403E3E1
:1000F000E5CFEDFFFBD700EE01F0020EE80403E3CD
:10010000E5CFEDFFFBD7E5CFFAFFE5CFF4FFE5CF75
:10011000F3FFE5CFF5FFE5CFF7FFE5CFF6FFE5CF3E
:10012000EAFFE5CFE9FFE5CFDAFF1100900E946E0C
:10013000956A01019E6B210EC66EC00EC76E9F6B45
:10014000F7D8F28EF28C9D869E968B9C3F0EC96EE0
:10015000FFD712000101955107E1010E956F96C17D
:10016000A0F10CD8A9D809D001019651A05D05E0F5
:1001700096C1A0F187D802D89FD81200D9CFE6FF48
:10018000E1CFD9FF020EE12601019B05DF6E010ED2
:10019000DB6A070EDF5C01E3DF6ADF50140DF3CF8B
:1001A00002F0F4CF03F0090E0226010E0322010E25
:1001B000DB500F010224E96E000E0320EA6EEF50BF
:1001C00018E0DF50140DF3CF02F0F4CF03F0090E66
:1001D0000226010E0322010EDBCFF3FFDB2AF350D0
:1001E0000224E96E000E0320EA6EEF508C6EC1D837
:1001F000D4D7200E8C6EBDD8F00E01019915E838C9
:100200000F0B300F8C6EB5D80F0E01019915300F02
:100210008C6EAFD82F0E8C6EACD8F00E01019A15F3
:10022000E8380F0B300F8C6EA4D80F0E01019A1511
:10023000300F8C6E9ED82F0E8C6E9BD8320E8C6E2B
:1002400098D8300E8C6E95D8F00E01019C15E838C8
:100250000F0B300F8C6E8DD80F0E01019C15300FD7
:100260008C6E87D80AD8020EE15C02E2E16AE552A0
:10027000E16EE552E7CFD9FF1200C00E8C6E73D845
:10028000C0EF01F0D9CFE6FFE1CFD9FFE652DF6A38
:100290000ED8140EDF5C05E2200E8C6E6AD8DF2AC1
:1002A000F8D705D8E552E552E7CFD9FF1200800E06
:1002B0008C6E59D8C0EF01F0D9CFE6FFE1CFD9FF5E
:1002C000020EE126DF6E010EDB6ADFCF02F00234A0
:1002D00025E2DFCFE9FFEA6AE9BEEA68960EE92681
:1002E000010EEA22EF50F00BE8380F0B300F8C6E46
:1002F00040D8DFCFE9FFEA6AE9BEEA68960EE92650
:10030000010EEA22EF500F0B300F8C6E32D8DF5007
:1003100003E03A0E8C6E2DD8DF06D7D7020EE15CD3
:1003200002E2E16AE552E16EE552E7CFD9FF120041
:10033000380E8C6E18D809D8010E8C6E14D805D8DA
:100340000C0E8C6E10D8A5EF01F0010ED56E0B0EC1
:10035000D76EBC0ED66ECBEF01F0480ED56EFD0EFB
:10036000D66ECBEF01F08B908B928B84F6DF8B9463
:1003700012008B808B928B84F0DF8B94C0EF01F0A6
:100380008B908B82958E8B94E8DF8B8483BEFBD71A
:100390008B94959E1200F294D58EF2A4FED7F2941F
:0403A000D59E1200D4
:0C03A4000E0EF66E000EF76E000EF86EE6
:1003B00001010900F550A66F0900F550A76F03E190
:1003C000A66701D03DD00900F550A16F0900F55096
:1003D000A26F0900F550A36F09000900F550E96EFE
:1003E0000900F550EA6E090009000900F550A46FF4
:1003F0000900F550A56F09000900F6CFA8F1F7CF65
:10040000A9F1F8CFAAF1A1C1F6FFA2C1F7FFA3C1DC
:10041000F8FF0101A45302E1A55307E00900F550DC
:10042000EE6EA407F8E2A507F9D7A8C1F6FFA9C1A7
:10043000F7FFAAC1F8FF0101A607000EA75BBFD70F
:020440001200A8
:0E044200000EF36E00EE00F0060E01D8120060
:10045000EA6002D0EE6AFCD7F350E9601200EE6A5F
:02046000FCD7C7
:0E04620015EE00F025EE00F0F86A019CD2ECD9
:0E04700001F003EC00F096EC00F0FBD7120058
:02047E00000379
:100480001522090124800053554E444159000000B3
:1004900000000000000000000000004D4F4E4441ED
:1004A000590000000000000000000000000000549F
:1004B00055455344415900333333333333333333A6
:1004C0003333335745444E455344415900000000EF
:1004D00000000000000000544855525344415900A8
:1004E00000000000000000000000004652494441A6
:1004F0005900000000000000000000000000005350
:1005000041545552444159000000000000000000D1
:0405100000000000E7
:020000040030CA
:010003000EEE
:00000001FF
